{
  "contractName": "Users",
  "abi": [
    {
      "constant": true,
      "inputs": [
        {
          "name": "",
          "type": "uint256"
        }
      ],
      "name": "users",
      "outputs": [
        {
          "name": "id",
          "type": "uint256"
        },
        {
          "name": "name",
          "type": "bytes32"
        },
        {
          "name": "point",
          "type": "uint256"
        }
      ],
      "payable": false,
      "stateMutability": "view",
      "type": "function"
    },
    {
      "constant": false,
      "inputs": [
        {
          "name": "userName",
          "type": "bytes32"
        },
        {
          "name": "userPoint",
          "type": "uint256"
        }
      ],
      "name": "addUser",
      "outputs": [
        {
          "name": "userID",
          "type": "uint256"
        },
        {
          "name": "success",
          "type": "bool"
        }
      ],
      "payable": false,
      "stateMutability": "nonpayable",
      "type": "function"
    },
    {
      "constant": true,
      "inputs": [],
      "name": "getUsers",
      "outputs": [
        {
          "name": "",
          "type": "uint256[]"
        },
        {
          "name": "",
          "type": "bytes32[]"
        },
        {
          "name": "",
          "type": "uint256[]"
        }
      ],
      "payable": false,
      "stateMutability": "view",
      "type": "function"
    },
    {
      "constant": false,
      "inputs": [
        {
          "name": "id",
          "type": "uint256"
        }
      ],
      "name": "plusFive",
      "outputs": [
        {
          "name": "success",
          "type": "bool"
        }
      ],
      "payable": false,
      "stateMutability": "nonpayable",
      "type": "function"
    }
  ],
  "bytecode": "0x608060405234801561001057600080fd5b5061051f806100206000396000f3fe608060405234801561001057600080fd5b506004361061004b5760003560e01c8062ce8e3e14610050578063365b98b21461013f578063a8293c281461018f578063b69ea684146101d5575b600080fd5b61005861022c565b60405180806020018060200180602001848103845287818151815260200191508051906020019060200280838360005b838110156100a3578082015181840152602081019050610088565b50505050905001848103835286818151815260200191508051906020019060200280838360005b838110156100e55780820151818401526020810190506100ca565b50505050905001848103825285818151815260200191508051906020019060200280838360005b8381101561012757808201518184015260208101905061010c565b50505050905001965050505050505060405180910390f35b61016b6004803603602081101561015557600080fd5b81019080803590602001909291905050506103af565b60405180848152602001838152602001828152602001935050505060405180910390f35b6101bb600480360360208110156101a557600080fd5b81019080803590602001909291905050506103e6565b604051808215151515815260200191505060405180910390f35b61020b600480360360408110156101eb57600080fd5b810190808035906020019092919080359060200190929190505050610435565b60405180838152602001821515151581526020019250505060405180910390f35b606080606060008080549050905060608160405190808252806020026020018201604052801561026b5781602001602082028038833980820191505090505b50905060608260405190808252806020026020018201604052801561029f5781602001602082028038833980820191505090505b5090506060836040519080825280602002602001820160405280156102d35781602001602082028038833980820191505090505b50905060008090505b60008054905081101561039c576102f16104cf565b600082815481106102fe57fe5b906000526020600020906003020160405180606001604052908160008201548152602001600182015481526020016002820154815250509050806000015185838151811061034857fe5b602002602001018181525050806020015184838151811061036557fe5b602002602001018181525050806040015183838151811061038257fe5b6020026020010181815250505080806001019150506102dc565b5082828296509650965050505050909192565b600081815481106103bc57fe5b90600052602060002090600302016000915090508060000154908060010154908060020154905083565b60006005600083815481106103f757fe5b906000526020600020906003020160020154016000838154811061041757fe5b90600052602060002090600302016002018190555060019050919050565b600080600160008154809291906001019190505591506104536104cf565b8281600001818152505084816020018181525050838160400181815250506000819080600181540180825580915050906001820390600052602060002090600302016000909192909190915060008201518160000155602082015181600101556040820151816002015550505082600192509250509250929050565b6040518060600160405280600081526020016000801916815260200160008152509056fea165627a7a72305820d2c5237cd529c91c87e2800e669a8135a71ec0884d919b2842a89f725c7ea9a60029",
  "source": "pragma solidity >=0.4.21 <0.6.0;\n\ncontract Users {\n\n    struct Participant {\n        uint id;\n        bytes32 name;\n        uint point;\n    }\n\n    Participant[] public users;\n    uint userCount;\n\n    function addUser(bytes32 userName, uint userPoint) public returns (uint userID, bool success) {\n        userID = userCount++;\n        Participant memory newUser;\n        newUser.id = userID;\n        newUser.name = userName;\n        newUser.point = userPoint;\n        users.push(newUser);\n\n        return(userID, true);\n    }\n\n    function getUsers() public view returns ( uint[] memory, bytes32[] memory, uint[] memory) {\n        uint length = users.length;\n        uint[] memory usersID = new uint[](length);\n        bytes32[] memory userNames = new bytes32[](length);\n        uint[] memory userPoints = new uint[](length);\n\n        for (uint i = 0; i < users.length; i++) {\n            Participant memory showUser;\n            showUser = users[i];\n            usersID[i] = showUser.id;\n            userNames[i] = showUser.name;\n            userPoints[i] = showUser.point;\n        }\n\n        return(usersID, userNames, userPoints);\n    }\n\n    function plusFive(uint id) public returns (bool success) {\n        users[id].point = users[id].point + 5;\n        return true;\n    }\n\n}",
  "sourcePath": "/Users/johnanisere/Documents/blockchain/scoreboard/contracts/Users.sol",
  "compiler": {
    "name": "solc",
    "version": "0.5.8+commit.23d335f2.Emscripten.clang"
  },
  "schemaVersion": "3.0.11",
  "updatedAt": "2019-07-13T16:40:04.108Z",
  "devdoc": {
    "methods": {}
  },
  "userdoc": {
    "methods": {}
  }
}